00000000: 5351 4c69 7465 2066 6f72 6d61 7420 3300  SQLite format 3.
00000010: 1000 0101 0c40 2020 0000 0002 0000 0002  .....@  ........
00000020: 0000 0000 0000 0000 0000 0001 0000 0004  ................
00000030: 0000 0000 0000 0000 0000 0001 0000 0000  ................
00000040: 0000 0000 0000 0000 0000 0000 0000 0000  ................
00000050: 0000 0000 0000 0000 0000 0000 0000 0002  ................
00000060: 002e 8df8                                ....
