aadi-gupta@aadi-gupta-HP-Laptop-15-fd0xxx:~$ xxd -s 8120 -l 100 lab.db
00001fb8: 0000 0000 0000 0000 0000 0000 0000 0805  ................
00001fc8: 0400 1301 4576 6518 0a04 0400 1701 4461  ....Eve.......Da
00001fd8: 7669 6417 0c03 0400 1b01 4368 6172 6c69  vid.......Charli
00001fe8: 6514 0802 0400 1301 426f 6216 0a01 0400  e.......Bob.....
00001ff8: 1701 416c 6963 6515                      ..Alice.
aadi-gupta@aadi-gupta-HP-Laptop-15-fd0xxx:~$ xxd -s 8134 -l 120 lab.db
00001fc6: 0805 0400 1301 4576 6518 0a04 0400 1701  ......Eve.......
00001fd6: 4461 7669 6417 0c03 0400 1b01 4368 6172  David.......Char
00001fe6: 6c69 6514 0802 0400 1301 426f 6216 0a01  lie.......Bob...
00001ff6: 0400 1701 416c 6963 6515                 ....Alice.
aadi-gupta@aadi-gupta-HP-Laptop-15-fd0xxx:~$ xxd -s 0 -l 256 lab.db
00000000: 5351 4c69 7465 2066 6f72 6d61 7420 3300  SQLite format 3.
00000010: 1000 0101 0040 2020 0000 0002 0000 0002  .....@  ........
00000020: 0000 0000 0000 0000 0000 0001 0000 0004  ................
00000030: 0000 0000 0000 0000 0000 0001 0000 0000  ................
00000040: 0000 0000 0000 0000 0000 0000 0000 0000  ................
00000050: 0000 0000 0000 0000 0000 0000 0000 0002  ................
00000060: 002e 7689 0d00 0000 010f 8e00 0f8e 0000  ..v.............
00000070: 0000 0000 0000 0000 0000 0000 0000 0000  ................
00000080: 0000 0000 0000 0000 0000 0000 0000 0000  ................
00000090: 0000 0000 0000 0000 0000 0000 0000 0000  ................
000000a0: 0000 0000 0000 0000 0000 0000 0000 0000  ................
000000b0: 0000 0000 0000 0000 0000 0000 0000 0000  ................
000000c0: 0000 0000 0000 0000 0000 0000 0000 0000  ................
000000d0: 0000 0000 0000 0000 0000 0000 0000 0000  ................
000000e0: 0000 0000 0000 0000 0000 0000 0000 0000  ................
000000f0: 0000 0000 0000 0000 0000 0000 0000 0000  ................
aadi-gupta@aadi-gupta-HP-Laptop-15-fd0xxx:~$ xxd -s 4096 -l 256 lab.db
00001000: 0d00 0000 050f c600 0ff4 0fea 0fdc 0fd0  ................
00001010: 0fc6 0000 0000 0000 0000 0000 0000 0000  ................
00001020: 0000 0000 0000 0000 0000 0000 0000 0000  ................
00001030: 0000 0000 0000 0000 0000 0000 0000 0000  ................
00001040: 0000 0000 0000 0000 0000 0000 0000 0000  ................
00001050: 0000 0000 0000 0000 0000 0000 0000 0000  ................
00001060: 0000 0000 0000 0000 0000 0000 0000 0000  ................
00001070: 0000 0000 0000 0000 0000 0000 0000 0000  ................
00001080: 0000 0000 0000 0000 0000 0000 0000 0000  ................
00001090: 0000 0000 0000 0000 0000 0000 0000 0000  ................
000010a0: 0000 0000 0000 0000 0000 0000 0000 0000  ................
000010b0: 0000 0000 0000 0000 0000 0000 0000 0000  ................
000010c0: 0000 0000 0000 0000 0000 0000 0000 0000  ................
000010d0: 0000 0000 0000 0000 0000 0000 0000 0000  ................
000010e0: 0000 0000 0000 0000 0000 0000 0000 0000  ................
000010f0: 0000 0000 0000 0000 0000 0000 0000 0000  ................
